{"abi":[{"type":"constructor","inputs":[{"name":"initialAddress","type":"address","internalType":"address"},{"name":"initialBalance","type":"uint256","internalType":"uint256"},{"name":"initialShares","type":"uint256","internalType":"uint256"}],"stateMutability":"nonpayable"},{"type":"function","name":"balances","inputs":[{"name":"","type":"address","internalType":"address"}],"outputs":[{"name":"","type":"uint256","internalType":"uint256"}],"stateMutability":"view"},{"type":"function","name":"setBalance","inputs":[{"name":"newBalance","type":"uint256","internalType":"uint256"}],"outputs":[],"stateMutability":"nonpayable"},{"type":"function","name":"setShares","inputs":[{"name":"newShares","type":"uint256","internalType":"uint256"}],"outputs":[],"stateMutability":"nonpayable"},{"type":"function","name":"shares","inputs":[],"outputs":[{"name":"","type":"uint256","internalType":"uint256"}],"stateMutability":"view"}],"bytecode":{"object":"0x6080604052348015600e575f80fd5b506040516101b83803806101b8833981016040819052602b91604b565b6001600160a01b039092165f908152602081905260409020556001556088565b5f805f60608486031215605c575f80fd5b83516001600160a01b03811681146071575f80fd5b602085015160409095015190969495509392505050565b610123806100955f395ff3fe6080604052348015600e575f80fd5b50600436106044575f3560e01c806303314efa14604857806327e235e3146062578063b1bb94b914607e578063fb1669ca146090575b5f80fd5b605060015481565b60405190815260200160405180910390f35b6050606d36600460ac565b5f6020819052908152604090205481565b608e608936600460d7565b600155565b005b608e609b36600460d7565b335f90815260208190526040902055565b5f6020828403121560bb575f80fd5b81356001600160a01b038116811460d0575f80fd5b9392505050565b5f6020828403121560e6575f80fd5b503591905056fea26469706673582212208b95ac1b2485cb8ed067325e16accb3c783d4364f711a5bc3e815ebacc06544d64736f6c634300081a0033","linkReferences":{}},"methodIdentifiers":{"balances(address)":"27e235e3","setBalance(uint256)":"fb1669ca","setShares(uint256)":"b1bb94b9","shares()":"03314efa"},"id":15}